:100254003100320033003F065B4F666D7D077F6FD0
:09026400010C0001090001080071
:10000E005389F0438901758CFF758A9CD2A9D28CD5
:03001E00D2AF223C
:03000B00020143AC
:04014300C0E0C0D088
:10014700758CFF758A9C0508E508D3950C5004D279
:0F015700908002C290E508C394644003750800CD
:05016600D0D0D0E03212
:10020B0075985053890F438920758DFD858D8BD241
:06021B008ED2ACD2AF222E
:040003007F02DFFE9B
:0100070022D6
:1001DB001201EFC2A51201EFD2A71201EF8B801211
:0401EB0001EFC2A7B7
:0401EF0000000022EA
:06016B00AB077F017E00DE
:10017100D3EF9400EE940040147D6E7C00ED1D7071
:0D018100011CED4C70F7EF1F70E61E80E3CF
:01018E00224E
:10022100E50990025A93F580C2A17F017E00020187
:01023100715B
:1002320012016BC2A61201DBD2A57F017E00020170
:01024200714A
:1002430012016BD2A61201DBD2A57F017E0002014F
:010253007139
:1001A9007F381202327F0C1202327F011202327F33
:0901B900061202327F80020232BC
:100110008B0F8A1089117580FF12016D7F83120287
:1001200032801AAB0FAA10A9111201C2FF6013127C
:10013000024374012511F511E43510F51012016D1B
:0301400080E12239
:1000B20020B11C7F0A7E0012017120B112750C3230
:1000C2007509017BFF7A02795412011030B1FD20CB
:1000D200B01C7F0A7E0012017120B012750C4B75A4
:1000E20009027BFF7A02795612011030B0FD20B26C
:1000F2001C7F0A7E0012017120B212750C64750910
:0E010200037BFF7A02795812011030B2FD2201
:10018F001201A912020B12000ED2AFD2A0E4F50C8D
:0A019F00F5091200B212022180F8E7
:030023000201F3E4
:1001F300C0D075D000C007309809AF99750A008F39
:080203000BC298D007D0D032E5
:03000000020026D5
:0C002600787FE4F6D8FD75811102006DB2
:1001C200BB010689828A83E0225002E722BBFE023B
:0901D200E32289828A83E493226E
:1000320002018FE493A3F8E493A34003F68001F254
:1000420008DFF48029E493A3F85407240CC8C333CF
:10005200C4540F4420C8834004F456800146F6DF9E
:10006200E4800B0102040810204080900264E47EC8
:10007200019360BCA3FF543F30E509541FFEE49393
:10008200A360010ECF54C025E060A840B8E493A35A
:10009200FAE493A3F8E493A3C8C582C8CAC583CA85
:1000A200F0A3C8C582C8CAC583CADFE9DEE780BE3D
:01026D000090
:00000001FF
